:0400000080316B28B8
:100008007E1480310B0C890C01392000BA000B0ECC
:10001800890C01393A0503191228132818280B11DD
:10002800DB30950021009D142000110E890C890CED
:100038000139BA002100110E890C890C0139200000
:100048003A05031928282928692811133D30A300E7
:100058002030A2000030A1000030A00021001B08C1
:100068002000BA00BB0121001C082000BC00BD0113
:100078003C08BD00BC013A083C07F0003B083D3D88
:10008800F100F201F30100308E313326803173081C
:100098002000A7007208A6007108A5007008A40037
:1000A800833163238031200023082100E8002000E9
:1000B80022082100E700200021082100E600200096
:1000C80020082100E500E901E90A7E1009008031D5
:1000D8006D288731FD278031D00021008C31B22472
:1000E8008031EA008C31B3248031EB008C31B424A8
:1000F8008031EC008C31B5248031ED002000CF0137
:10010800D53084000030850015308C31B62480311C
:100118007E1020008E31DD2E210023088039A800B2
:100128002335AE00A21F99289A289B282E142E0842
:1001380003199F28A028AF282E0A031DA428A52844
:10014800AD280030A3000030A2000030A10000302C
:10015800A000A217B7280030A3000030A20000308A
:10016800A1000030A000270880392000C8004808F6
:100178002100A8062735A900A61FC328C428C5281A
:10018800291429080319C928CA28D928290A031DA6
:10019800CE28CF28D7280030A7000030A60000308E
:1001A800A5000030A400A617E1280030A700003001
:1001B800A6000030A5000030A40029080319E5288E
:1001C800E628EB282E08031DEA28EB28F42800303F
:1001D800A3000030A2000030A1000030A000622B74
:1001E80020082000BF00210026088731CE27803153
:1001F800200040082100B40020003F082100B3007F
:1002080033082000C800C901CA01CB014B082100EE
:10021800AD0020004A082100AC0020004908210058
:10022800AB00200048082100AA0034082000C800BC
:10023800C901CA01CB014B082100B20020004A08BD
:100248002100B100200049082100B0002000480822
:100258002100AF0021082000BF00210025088731B8
:10026800CE278031200040082100B40020003F083C
:100278002100B30033082000C800C901CA01CB011E
:1002880048082100AA07200049082100AB3D2000AA
:100298004A082100AC3D20004B082100AD3D340840
:1002A8002000C800C901CA01CB0148082100AF07D6
:1002B800200049082100B03D20004A082100B13D36
:1002C80020004B082100B23D22082000BF00210079
:1002D80024088731CE278031200040082100B4004F
:1002E80020003F082100B30033082000C800C901DE
:1002F800CA01CB0148082100AA07200049082100AB
:10030800AB3D20004A082100AC3D20004B082100ED
:10031800AD3D34082000C800C901CA01CB01480816
:100328002100AF07200049082100B03D20004A08FD
:100338002100B13D20004B082100B23D0830AA350C
:10034800AB0DAC0DAD0D890BA32921082000BF0012
:10035800210024088731CE27803120004008210061
:10036800B40020003F082100B3003308AA0734086E
:10037800AB3D0030AC3DAD3D20082000BF00210062
:1003880025088731CE278031200040082100B4009D
:1003980020003F082100B3003308AA073408AB3D0A
:1003A8000030AC3DAD3D0830AA35AB0DAC0DAD0D00
:1003B800890BD82920082000BF0021002408873194
:1003C800CE278031200040082100B40020003F08DB
:1003D8002100B3003308AA073408AB3D0030AC3D18
:1003E800AD3D21082000BF00210026088731CE2717
:1003F8008031200040082100B40020003F0821007F
:10040800B3003308AF073408B03D0030B13DB23D0A
:1004180022082000BF00210025088731CE2780311F
:10042800200040082100B40020003F082100B3004C
:100438003308AF073408B03D0030B13DB23D220863
:100448002000BF00210026088731CE2780312000F8
:1004580040082100B40020003F082100B300330801
:100468002000C800210034082000C900CA01CB01BF
:100478000830C835C90DCA0DCB0D890B3D2A48086F
:100488002100AF07200049082100B03D20004A089C
:100498002100B13D20004B082100B23D2A08200070
:1004A800C80021002B082000C90021002C082000CA
:1004B800CA0021002D082000CB001830CB36CA0C0A
:1004C800C90CC80C890B622A48082100AF07200014
:1004D80049082100B03D20004A082100B13D200014
:1004E8004B082100B23D0830AA35AB0DAC0DAD0D5F
:1004F800890B782A2E0829072000C800C901C90DD0
:100508004808823E2100B300FF302000493D210009
:10051800B400A52A0130AF35B00DB10DB20D890B6D
:100528008F2AAD1F982A992A9A2A2F140130AA35A2
:10053800AB0DAC0DAD0D890B9B2AFF30B307FF3017
:10054800B43DB11FA82AA92A8E2AA901AD1FAD2A38
:10055800AE2AD32AFF302A052000C800FF30210028
:100568002B052000C900FF3021002C052000CA00FF
:100578007F3021002D052000CB004B084A04490498
:1005880048040319C82AC92ACD2A2100A901A90AA1
:10059800D32A21002F1CD12AD22AD32AC92A2908D2
:1005A8000319D72AD82A0E2B0130AF070030B03DE7
:1005B8000030B13D0030B23D321CE32AE42A0E2B54
:1005C8002F082000C800210030082000C9002100A1
:1005D80031082000CA00210032082000CB00013079
:1005E800CC00CB37CA0CC90CC80CCC0BF52A4B086D
:1005F8002100B20020004A082100B100200049086B
:100608002100B000200048082100AF000130B307E6
:100618000030B43D3408803A2000C80080304802D9
:10062800031D192BFF3021003302031C1C2B1D2B2B
:10063800272B7F302100B2008030B1000030B0009D
:100648000030AF00542B21003408803A2000C80045
:1006580080304802031D332B013021003302031878
:10066800362B372B422B00302100B2000030B1006E
:100678000030B0000030AF00A801542B210033082F
:10068800AE00FF30AF05FF30B0057F30B105003058
:10069800B2052E1C502B512B522BB1172E36B200FF
:1006A80028082000C80048082100B2043208A30026
:1006B8003108A2003008A1002F08A000080020007F
:1006C80023088039AD002335B300A21F6C2B6D2B96
:1006D8006E2B331433080319722B732B822B330AB6
:1006E800031D772B782B802B0030A3000030A2004D
:1006F8000030A1000030A000A2178A2B0030A30010
:100708000030A2000030A1000030A0002708803986
:10071800A8002808AD062735B200A61F942B952BF4
:10072800962B3214320803199A2B9B2BAA2B320AC8
:10073800031D9F2BA02BA82B0030A7000030A6007C
:100748000030A5000030A400A617B22B0030A70087
:100758000030A6000030A5000030A40032080319BC
:10076800B62BB72BBC2B3308031DBB2BBC2BC52BBF
:100778000030A3000030A2000030A1000030A0002B
:100788009D2D2008F00026088D3109258331710838
:100798002000B9007008B8003808A800A901AA010B
:1007A800AB012B08B1002A08B0002908AF002808BF
:1007B800AE003908A800A901AA01AB012B08B700AF
:1007C8002A08B6002908B5002808B4002108F00056
:1007D80025088D310925833171082000B90070087A
:1007E800B8003808A800A901AA01AB012808AE077B
:1007F8002908AF3D2A08B03D2B08B13D3908A800AB
:10080800A901AA01AB012808B4072908B53D2A089F
:10081800B63D2B08B73D2208F00024088D31092584
:10082800833171082000B9007008B8003808A800A2
:10083800A901AA01AB012808AE072908AF3D2A087B
:10084800B03D2B08B13D3908A800A901AA01AB01A8
:100858002808B4072908B53D2A08B63D2B08B73D36
:100868000830AE35AF0DB00DB10D890B352C210810
:10087800F00024088D310925833171082000B90062
:100888007008B8003808AE073908AF3D0030B03DF1
:10089800B13D2008F00025088D3109258331710804
:1008A8002000B9007008B8003808AE073908AF3D15
:1008B8000030B03DB13D0830AE35AF0DB00DB10DD3
:1008C800890B602C2008F00024088D31092583311C
:1008D80071082000B9007008B8003808AE07390858
:1008E800AF3D0030B03DB13D2108F00026088D3104
:1008F8000925833171082000B9007008B80038084C
:10090800B4073908B53D0030B63DB73D2208F000C0
:1009180025088D310925833171082000B900700838
:10092800B8003808B4073908B53D0030B63DB73DC2
:100938002208F00026088D3109258331710820002E
:10094800B9007008B8003808A8003908A900AA0139
:10095800AB010830A835A90DAA0DAB0D890BAE2C3B
:100968002808B4072908B53D2A08B63D2B08B73D25
:100978002E08A8002F08A9003008AA003108AB00EB
:100988001830AB36AA0CA90CA80C890BC52C280862
:10099800B4072908B53D2A08B63D2B08B73D0830ED
:1009A800AE35AF0DB00DB10D890BD42C330832071D
:1009B800A800A901A90D2808823EB800FF30293DEA
:1009C800B900FD2C0130B435B50DB60DB70D890B46
:1009D800E72CB11FF02CF12CF22C34140130AE3579
:1009E800AF0DB00DB10D890BF32CFF30B807FF30F8
:1009F800B93DB61F002D012DE62CB201B11F052D02
:100A0800062D222DFF302E05A800FF302F05A90046
:100A1800FF303005AA007F303105AB002B082A04CF
:100A2800290428040319192D1A2D1D2DB201B20A03
:100A3800222D341C202D212D222D1A2D3208031988
:100A4800262D272D4F2D0130B4070030B53D00303D
:100A5800B63D0030B73D371C322D332D4F2D3408AD
:100A6800A8003508A9003608AA003708AB000130ED
:100A7800AC00AB37AA0CA90CA80CAC0B3D2D2B086D
:100A8800B7002A08B6002908B5002808B4000130C4
:100A9800B8070030B93D3908803AA80080302802EC
:100AA800031D582DFF303802031C5B2D5C2D662D6D
:100AB8007F302000B7008030B6000030B50000302D
:100AC800B400912D20003908803AA800803028020F
:100AD800031D702D013038020318732D742D7F2DDE
:100AE80000302000B7000030B6000030B5000030FC
:100AF800B400AD01912D20003808B300FF30B405D3
:100B0800FF30B5057F30B6050030B705331C8D2D95
:100B18008E2D8F2DB6173336B7002D08A80028085C
:100B2800B7043708A3003608A2003508A100340826
:100B3800A0000800210038088039C5003835C700F2
:100B4800B71FA72DA82DA92D471447080319AD2DA8
:100B5800AE2DBE2D470A031DB22DB32DBB2D00307F
:100B6800B8000030B7000030B6000030B500B71745
:100B7800B801C62D0030B8000030B7000030B6000C
:100B88000030B5003C088039C60046084506031900
:100B9800CE2DCF2DD02D45173C35C600BB1FD52DEA
:100BA800D62DD72D461446080319DB2DDC2DEC2D48
:100BB800460A031DE02DE12DE92D0030BC00003070
:100BC800BB000030BA000030B900BB17BC01F42DDF
:100BD8000030BC000030BB000030BA000030B90063
:100BE800470846020318F92DFA2D202E451FFD2D22
:100BF800FE2D022E8030BD003D08C5064708C800FE
:100C08004608C7004808C6003508C8003908B500B6
:100C18004808B9003608C8003A08B6004808BA00BB
:100C28003708C8003B08B7004808BB003808C800A8
:100C38003C08B8004808BC00C8014608BD00BE0111
:100C48003E08C00047083D02BF00031CC00340081F
:100C5800803AC10080304102031D342E1A303F0211
:100C6800031C372E382E6A2E210038083704360424
:100C78003504031D402E422E0130432E0030C8009B
:100C88000030B8000030B7000030B6000030B500C2
:100C98004608C700712E481C522E532E572E483630
:100CA8000138C800592E0310C80C351C5C2E5D2E67
:100CB8005E2EC8170130BD00B837B70CB60CB50C9E
:100CC800BD0B602E0130BD003D08C7072100460856
:100CD8004702031C702E712E4F2E451B742E752E45
:100CE800AB2E4708031D792E7A2E832E0030B800CC
:100CF8000030B7000030B6000030B500A52F390825
:100D0800B5073A08B63D3B08B73D3C08B83D381C26
:100D18008E2E8F2E372F481C922E932E972E4836C4
:100D28000138C800992E0310C80C351C9C2E9D2E26
:100D38009E2EC8170130BD00B837B70CB60CB50CDD
:100D4800BD0BA02E0130BD003D08C707372F38085E
:100D5800803ABD003C08803A3D02031DBD2E3B0889
:100D68003702031DBD2E3A083602031DBD2E390871
:100D780035020318C02EC12EF92EFF30BD00FF30FA
:100D8800BE00FF30BF00FF30C00035083902C10087
:100D980036083A3BC20037083B3BC30038083C3BA7
:100DA800C4004108BD074208BE3D4308BF3D440892
:100DB800C03D4008B8003F08B7003E08B6003D08EF
:100DC800B5008030BD003D08C506C809C80A4808F6
:100DD800031DEF2EF02E012F0130B5070030B63D70
:100DE8000030B73D0030B83D012F3908B5023A0848
:100DF800B63B3B08B73B3C08B83B380837043604D9
:100E08003504031D082F092F332F4808031D0D2F04
:100E18000E2F332F0030B8000030B7000030B60076
:100E28000030B500A52F0130B535B60DB70DB80D9A
:100E3800890B182FC81F212F222F232F3514481C48
:100E4800262F272F2A2F0314C80D2C2F0310C80D67
:100E580047080319302F312F332F0130C702B71F2E
:100E6800362F372F172FC601C81F3B2F3C2F4A2F6D
:100E780048087F390319412F422F452FC601C60A5A
:100E88004A2F351C482F492F4A2F422F460803194D
:100E98004E2F4F2F7C2F0130B5070030B63D003064
:100EA800B73D0030B83D381C5A2F5B2F7C2F3508D2
:100EB800BD003608BE003708BF003808C000013042
:100EC800C100C037BF0CBE0CBD0CC10B652F40085C
:100ED800B8003F08B7003E08B6003D08B500470A0D
:100EE8000319772F782F7C2F0130BD003D08C707E5
:100EF800470A0319802F812F862F4708031D852F46
:100F0800862F942F0030B8000030B7000030B600AC
:100F18000030B5004708031D922F932F942FC50169
:100F2800471C972F982F9A2FB7179E2F7F30BD00F9
:100F38003D08B7054736B800C51FA32FA42FA52F16
:100F4800B817080021003D080139BF00BF0E250071
:100F58001A0821003F06EF393F0625009A002100B4
:100F68003D080239BF00BF0EBF0D25001A08210039
:100F78003F06DF393F0625009A0021003E08C000E1
:100F88003D08BF00C036BF0CC036BF0C3F08250067
:100F9800980008002000C700C301C4013F08C10031
:100FA800C2014108C5004208C600471CDC2FDD2FDE
:100FB800E12F4508C3074608C43D0130C535C60DB5
:100FC800890BE22F0310C70C4708031DEC2FED2FE8
:100FD800D92F4408C0004308BF000800210095121B
:100FE800951107309504DB30200095000B118B1606
:040FF80008000134B8
:1019640000340034F0344134640080010131890BC7
:10197400B72C0034FD3021008E0022008E0125009A
:101984001A159A15193020009B001C109C101C1568
:1019940000302100BD00BE008731A6278C3108002D
:1019A400FF3021008C00FF3023008C0021001E0832
:1019B4008F3930389E001E11FC309E059E178330EF
:1019C4009D051D14200011132100111708008030FB
:1019D4002100CC065008B8004F08B7004E08B600E6
:1019E4004D08B5004C08BC004B08BB004A08BA00BF
:1019F4004908B90085319E258C3121003808CC0076
:101A04003708CB003608CA003508C9000800F800BA
:101A1400F401F5017008F200F3017208F60073088E
:101A2400F700781C162D172D1B2D7608F407770860
:101A3400F53D0130F635F70D890B1C2D0310F80C1C
:101A44007808031D262D272D132D7508F100740821
:101A5400F000080003102100370D380D2000CE00DF
:101A64004E08031D362D372D412D00302100B800BE
:101A74000030B7000030B6000030B500A72D2100BB
:101A84003508B9003608BA003708BB003808BC006E
:101A94001F30BC36BB0CBA0CB90C890B4B2D390862
:101AA4002000CD002100B717FF30B505FF30B60583
:101AB400FF30B7050030B80596302000CE02CE1FA7
:101AC400642D652D7F2D4E08803A973E03186B2DAB
:101AD4006C2D6D2D372D01302100B836B70CB60CA6
:101AE400B50C890B6E2D0130B90039082000CE07E2
:101AF400031D7D2D7E2D6D2D962D20304E02031C51
:101B0400842D852D912D372D01302100B535B60D4D
:101B1400B70DB80D890B872D01302000CE024E0879
:101B2400031D952D962D862D4D0803199A2D9B2D59
:101B3400A72D2100B509B609B709B809B50A0319D3
:101B4400B60A0319B70A0319B80A080000302000BE
:101B54003F05C70000304005C80080304105C9007A
:101B64007F304205CA004A08490448044704031D5B
:101B7400BC2DBD2DC52D0030C2000030C100003089
:101B8400C0000030BF0000304305C70000304405EA
:101B9400C80080304505C9007F304605CA004A08A0
:101BA400490448044704031DD82DD92DE12D0030E4
:101BB400C6000030C5000030C4000030C300C21F9E
:101BC400E42DE52DFD2D0030C7000030C8000030A5
:101BD400C9008030CA003F08C7024008C83B41081A
:101BE400C93B4208CA3B4A08C2004908C100480828
:101BF400C0004708BF00C61F002E012E192E00305A
:101C0400C7000030C8000030C9008030CA00430853
:101C1400C7024408C83B4508C93B4608CA3B4A08B2
:101C2400C6004908C5004808C4004708C3008030FE
:101C3400C2068030C60646084202031D2B2E450804
:101C44004102031D2B2E44084002031D2B2E430882
:101C54003F0203182E2E2F2E312E0310322E031482
:101C64000800F80078080319382E392E4D2EF31F7A
:101C74003C2E3D2E4D2E7009FA007109FB007209AD
:101C8400FC007309FD00FA0A0319FB0A0319FC0A94
:101C94000319FD0A552E7308FD007208FC00710833
:101CA400FB007008FA007308720471047004031DC9
:101CB4005C2E5D2E662E0030F3000030F200003002
:101CC400F1000030F000DC2E9630F900742E013063
:101CD400F4007408F9070130FD36FC0CFB0CFA0C17
:101CE400890B6E2EFE307D05031D792E7A2E692E0A
:101CF4008E2E0130F4007408F9070130FA07003021
:101D0400FB3D0030FC3D0030FD3D0130FD36FC0C58
:101D1400FB0CFA0C890B882EFF307D05031D932ED6
:101D2400942E7B2E9E2E0130F9020130FA35FB0DE4
:101D3400FC0DFD0D890B982EFC1BA12EA22EA82EA6
:101D4400023079020318A72EA82E952E7918AB2EEF
:101D5400AC2EB42EFF30FA05FF30FB057F30FC05B6
:101D6400FF30FD050310F90C7908F400F501F601C4
:101D7400F7011830F435F50DF60DF70D890BBC2E6F
:101D84007408FA047508FB047608FC047708FD045B
:101D940078080319CE2ECF2ED42EF31FD22ED32E95
:101DA400D42EFD177D08F3007C08F2007B08F100B7
:101DB4007A08F000080020008D0123008D01210025
:101DC4008D018C31BC248E318731F2278E318C31D8
:101DD400D2248E310B178B17210069080319F32EB7
:101DE400F42EEE2E6808CC006708CB006608CA0003
:101DF4006508C9004130D000F030CF000030CE007B
:101E04000030CD008C31E9248E3121004C08DC00F7
:101E14004B08DB004A08DA004908D9006408B80016
:101E24006308B7006208B6006108B500BA30A300C1
:101E3400D830A2004430A100D030A0006008A70030
:101E44005F08A6005E08A5005D08A400803190200C
:101E54008E3121002308BC002208BB002108BA00EF
:101E64002008B90085319E258E3121003808D40020
:101E74003708D3003608D2003508D1003B30A30020
:101E84000330A2001230A1006F30A0005C08A7004C
:101E94005B08A6005A08A5005908A40080319020C8
:101EA4008E3121002308B8002208B7002108B600AB
:101EB4002008B5005408BC005308BB005208BA00FF
:101EC4005108B90085319E258E3121003808D8008B
:101ED4003708D7003608D6003508D5005808200042
:101EE400C200210057082000C1002100560820002C
:101EF400C000210055082000BF000030C60000309B
:101F0400C5000030C4000030C3008D31A8258E31D7
:101F140003188D2F8E2F982F00302100D800003009
:101F2400D7000030D6000030D500C12F3F3020004C
:101F3400C2008030C1000030C0000030BF0021006A
:101F440058082000C600210057082000C5002100C1
:101F540056082000C400210055082000C3008D311C
:101F6400A8258E310318B72FB82FC12F3F30210079
:101F7400D8008030D7000030D6000030D5002100D2
:101F84005808A7005708A6005608A5005508A4003D
:101F94004230A300D030A2000030A1000030A000E5
:101FA400803190208E3121002308B8002208B70028
:101FB4002108B6002008B5008D312C258E31210072
:101FC4003608BE003508BD008731A6278E312100B2
:101FD4005808E4005708E3005608E2005508E100F9
:101FE4005C08E0005B08DF005A08DE005908DD00E9
:101FF400E90120008D09EE2E80316B28D034443461
:10200400D834BA346F34123403343B3400340034DB
:0620140020343D34DB34F2
:020000040001F9
:08000000FF3FFF3FFF3FFF3F00
:04000E00E20FFF1CE2
:00000001FF
